:100000000C9481000C94A9000C94A9000C94A900F4
:100010000C94A9000C94A9000C94A9000C94A900BC
:100020000C94A9000C94A9000C94A9000C94A900AC
:100030000C94A9000C94A9000C94A9000C94A9009C
:100040000C948A050C94A9000C94FA050C94D40520
:100050000C94A9000C94A9000C94A9000C94A9007C
:100060000C94A9000C94A9004E414E494E49545994
:10007000494E46CDCCCC3D0AD7233C17B7D1387773
:10008000CC2B329595E6241FB14F0A000020410089
:1000900000C84200401C4620BCBE4CCA1B0E5AAED3
:1000A000C59D7400000000240027002A0000000005
:1000B00000250028002B0000000000230026002956
:1000C0000004040404040404040202020202020301
:1000D000030303030301020408102040800102040B
:1000E000081020010204081020000000080002018E
:1000F00000000304070000000000000000002C06C0
:100100004F0911241FBECFEFD8E0DEBFCDBF23E0E3
:10011000AEE0B2E001C01D92AF33B207E1F712E0EA
:10012000A0E0B1E0EAE1F0E202C005900D92AE304D
:10013000B107D9F710E0C0E8D0E004C02197FE0174
:100140000E94870CCF37D107C9F70E9472060C9422
:1001500000100C940000833081F028F4813099F075
:100160008230A1F008958730A9F08830B9F084304A
:10017000D1F4809180008F7D03C0809180008F77C3
:1001800080938000089584B58F7702C084B58F7DF9
:1001900084BD08958091B0008F7703C08091B00036
:1001A0008F7D8093B0000895CF93DF93282F30E0A8
:1001B000F901E751FF4F8491F901EB52FF4FD491C0
:1001C000F901EF53FF4FC491CC2391F081110E94AC
:1001D000AB00EC2FF0E0EE0FFF1FE954FF4FA591AD
:1001E000B491EC91ED2381E090E021F480E002C035
:1001F00080E090E0DF91CF9108951F93CF93DF933C
:10020000282F30E0F901E751FF4F8491F901EB52BB
:10021000FF4FD491F901EF53FF4FC491CC23C1F0AC
:10022000162F81110E94AB00EC2FF0E0EE0FFF1FA4
:10023000E355FF4FA591B4919FB7F894111104C0F5
:100240008C91D095D82302C0EC91DE2BDC939FBF1C
:10025000DF91CF911F9108953FB7F89480917B0271
:1002600090917C02A0917D02B0917E0226B5A89B60
:1002700005C02F3F19F00196A11DB11D3FBFBA2F38
:10028000A92F982F8827820F911DA11DB11DBC0198
:10029000CD0142E0660F771F881F991F4A95D1F75D
:1002A00008958F929F92AF92BF92CF92DF92EF927A
:1002B000FF926B017C010E942C014B015C01C11477
:1002C000D104E104F104F1F00E942C01DC01CB0126
:1002D00088199909AA09BB09883E9340A105B1056F
:1002E00070F321E0C21AD108E108F10888EE880E07
:1002F00083E0981EA11CB11CC114D104E104F104D7
:1003000019F7DDCFFF90EF90DF90CF90BF90AF90C7
:100310009F908F9008950895CF92DF92EF92FF9271
:100320000F931F93CF93DF936C017A018B01C0E091
:10033000D0E0CE15DF0581F0D8016D918D01D60199
:10034000ED91FC910190F081E02DC6010995892B7A
:1003500011F02196EECF7E01C701DF91CF911F9161
:100360000F91FF90EF90DF90CF90089580E090E0A4
:100370000895FC01538D448D252F30E0842F90E0AB
:10038000821B930B541710F0CF9608950197089590
:10039000FC01918D828D981761F0828DDF01A80F8D
:1003A000B11D5D968C91928D9F5F9F73928F90E0AF
:1003B00008958FEF9FEF08952FB7F89480917F02F3
:1003C00090918002A0918102B09182022FBF809310
:1003D0008B0290938C02A0938D02B0938E0283E8DF
:1003E00092E00E94C80197FF26C02FB7F894809131
:1003F0007F0290918002A0918102B09182022FBF72
:1004000040918B0250918C0260918D0270918E020E
:10041000841B950BA60BB70B409187025091880265
:100420006091890270918A0284179507A607B70721
:10043000B0F28FEF9FEF0895FC01918D828D981798
:1004400031F0828DE80FF11D858D90E008958FEFDA
:100450009FEF0895FC01918D228D892F90E0805CA3
:100460009F4F821B91098F739927089583E892E02B
:100470000E942A0221E0892B09F420E0822F0895AE
:10048000FC01848DDF01A80FB11DA35ABF4F2C9131
:10049000848D90E001968F739927848FA689B78900
:1004A0002C93A089B1898C91837080648C93938DF7
:1004B000848D981306C00288F389E02D80818F7D9A
:1004C00080830895EF92FF920F931F93CF93DF9352
:1004D000EC0181E0888F9B8D8C8D981305C0E88995
:1004E000F989808185FD26C0F62E0B8D10E00F5F07
:1004F0001F4F0F731127E02E8C8DE8120CC00FB622
:1005000007FCFACFE889F989808185FFF5CFCE0114
:100510000E944002F1CF8B8DFE01E80FF11DE35ADE
:10052000FF4FF0829FB7F8940B8FEA89FB89808197
:1005300080620AC09FB7F894EE89FF896083E889DA
:10054000F98980818370806480839FBF81E090E01F
:10055000DF91CF911F910F91FF90EF900895CF936E
:10056000DF93EC01888D8823C9F0EA89FB898081BB
:1005700085FD05C0A889B9898C9186FD0FC00FB68D
:1005800007FCF5CF808185FFF2CFA889B9898C91CE
:1005900085FFEDCFCE010E944002E7CFDF91CF91E2
:1005A000089580E090E0892B29F00E9436028111A5
:1005B0000C94000008950895FF920F931F93CF931A
:1005C000DF93F82E062FC7E0D0E010E061E0802F27
:1005D0000E94FD008F2D0E94D4000C2E01C0880FB8
:1005E0000A94EAF7182B60E0802F0E94FD00219703
:1005F00068F7812FDF91CF911F910F91FF900895A0
:10060000EF92FF920F931F93CF93DF9380912F036D
:100610000E94D400892B31F060E070E0CB010E9491
:100620005101F4CFEFB6F89460912E0380912F031F
:100630000E94DC02C82F60912E0380912F030E943C
:10064000DC02D82F60912E0380912F030E94DC02E0
:10065000F82E00E010E08091300390E008171907B1
:1006600068F461E080912E030E94FD0060E08091BB
:100670002E030E94FD000F5F1F4FEDCFEFBE8D2FA9
:1006800090E0A0E0B0E0BA2FA92F982F8827AC2BDC
:10069000AC01BD014F298C2F880F880B90E0A0E0A2
:1006A000B0E0B82FAA27992788278A019B01082B39
:1006B000192B2A2B3B2BC901B801DF91CF911F9138
:1006C0000F91FF90EF900895009769F0FC01019061
:1006D0000020E9F73197AF01481B590BBC0183E8B3
:1006E00092E00C948C0180E090E00895CF93DF932A
:1006F0000E946403EC0184E291E00E9464038C0F89
:100700009D1FDF91CF910895CF92DF92EF92FF92DC
:10071000CF93CAE0C12CD12C76010E940003C60EF3
:10072000D71EE81EF91E60E070E0CB010E94510167
:10073000C15099F7C701B6012AE030E040E050E02F
:100740000E94680CCA01B9010E94D50A0E946C0D72
:100750006093310370933203809333039093340397
:1007600087E291E0CF91FF90EF90DF90CF900C94D3
:1007700076038F929F92AF92BF920F931F93CF9366
:10078000DF93CDB7DEB7A1970FB6F894DEBF0FBEEB
:10079000CDBF19A2423008F44AE08E010F5D1F4F11
:1007A000842E912CA12CB12CA50194010E94460C01
:1007B000E62FB901CA0101501109EA3014F4E05DD5
:1007C00001C0E95CD801EC93232B242B252B61F786
:1007D000C8010E946403A1960FB6F894DEBF0FBE55
:1007E000CDBFDF91CF911F910F91BF90AF909F90A0
:1007F0008F9008958F929F92AF92BF92CF92DF9287
:10080000EF92FF920F931F93CF93DF936B017C01C5
:10081000142F9B01AC010E94FF0D882319F087E380
:1008200091E027C046015701E894B7F82FEF3FEF5A
:100830004FE75FE7C501B4010E94FF0D81110DC0B4
:100840002FEF3FEF4FE75FE7C501B4010E94CE0AEB
:1008500018161CF48BE391E00CC02FEF3FEF4FE72D
:100860005FE4C701B6010E94FA0D181684F48FE305
:1008700091E0DF91CF911F910F91FF90EF90DF906A
:10088000CF90BF90AF909F908F900C9464032FEF08
:100890003FEF4FE75FECC701B6010E94CE0A87FD2C
:1008A000E6CF20E030E0A901C701B6010E94CE0AE0
:1008B00087FF0BC06DE283E892E00E946202EC01C8
:1008C000F7FAF094F7F8F09402C0C0E0D0E000E04E
:1008D00060E070E080E09FE3101741F020E030E03E
:1008E00040E251E40E94FA0C0F5FF6CFA701960197
:1008F0000E948E0C6B017C010E94730D4B015C0108
:100900004AE00E94B903C80FD91F1123B9F1C501EC
:10091000B4010E94D30A9B01AC01C701B6010E9439
:100920008D0C6B017C016EE283E892E00E94620212
:10093000C80FD91F20E030E040E251E4C701B60102
:100940000E94340B4B015C010E94730D6B01E12C82
:10095000F12C4AE0C701B6010E94B903C80FD91FA4
:10096000C701B6010E94D30A9B01AC01C501B401C5
:100970000E948D0C6B017C011150E1F6CE01DF91DC
:10098000CF911F910F91FF90EF90DF90CF90BF908C
:10099000AF909F908F9008950C949C0E0F931F938F
:1009A000CF93DF938C01EB01FC0180819181009753
:1009B00039F06881798161157105A1F40E949C0E5E
:1009C00088819981F801918380838A819B819383B7
:1009D00082838C819D8195838483198218821B82F6
:1009E0001A820FC0F801428153812C813D81421748
:1009F000530720F30E94F90F8C819D81F8019583A4
:100A000084831D821C82DF91CF911F910F910895E5
:100A10000E94EB0F0F931F93CF93DF93EC0188811C
:100A20009981009729F02A813B812617370788F49E
:100A30008B016F5F7F4F0E94250F009761F09983B4
:100A400088831B830A832C813D81232B11F4FC01B5
:100A5000108281E001C080E0DF91CF911F910F9162
:100A60000895EF92FF920F931F93CF93DF93EC01C2
:100A70007B018A01BA010E940A052881398181110E
:100A80000DC02115310519F0C9010E949C0E198273
:100A900018821D821C821B821A8206C01D830C8351
:100AA000B701C9010E94F90FCE01DF91CF911F91CB
:100AB0000F91FF90EF900895CF93DF93EC016115B4
:100AC000710559F0FB0101900020E9F73197AF0162
:100AD000461B570B0E9431050CC0888199810097F5
:100AE00011F00E949C0E198218821D821C821B82AA
:100AF0001A82CE01DF91CF910895FC0111821082FC
:100B0000138212821582148240E050E066E271E0A6
:100B10000C9431051F920F920FB60F9211242F9350
:100B20003F938F939F93AF93BF9380917F02909158
:100B30008002A0918102B091820230917A0223E07A
:100B4000230F2D3720F40196A11DB11D05C026E805
:100B5000230F0296A11DB11D20937A0280937F027C
:100B600090938002A0938102B093820280917B02D5
:100B700090917C02A0917D02B0917E020196A11D10
:100B8000B11D80937B0290937C02A0937D02B09371
:100B90007E02BF91AF919F918F913F912F910F90C6
:100BA0000FBE0F901F9018951F920F920FB60F92C5
:100BB00011242F933F934F935F936F937F938F9362
:100BC0009F93AF93BF93EF93FF9383E892E00E94CC
:100BD0004002FF91EF91BF91AF919F918F917F91D3
:100BE0006F915F914F913F912F910F900FBE0F909A
:100BF0001F9018951F920F920FB60F9211242F93EA
:100C00008F939F93EF93FF93E0919302F09194025F
:100C10008081E0919902F0919A0282FD12C0908148
:100C200080919C028F5F8F7320919D02821751F0FB
:100C3000E0919C02F0E0ED57FD4F958F80939C0270
:100C400001C08081FF91EF919F918F912F910F9023
:100C50000FBE0F901F901895E3E8F2E01382128206
:100C600088EE93E0A0E0B0E084839583A683B78309
:100C70008EE091E09183808385EC90E09587848776
:100C800084EC90E09787868780EC90E0918B808B56
:100C900081EC90E0938B828B82EC90E0958B848B3F
:100CA00086EC90E0978B868B118E128E138E148EAD
:100CB000ECE2F3E080E291E091838083158216827A
:100CC0001782108680E090E0A0E8BFE381879287DA
:100CD000A387B48786E293E00E947D0580E293E0DB
:100CE0000C947D05CF93DF93CDB7DEB728970FB671
:100CF000F894DEBF0FBECDBF789484B5826084BD0A
:100D000084B5816084BD85B5826085BD85B581600F
:100D100085BD80916E00816080936E00109281008D
:100D20008091810082608093810080918100816048
:100D30008093810080918000816080938000809109
:100D4000B10084608093B1008091B0008160809395
:100D5000B00080917A00846080937A0080917A005C
:100D6000826080937A0080917A00816080937A001B
:100D700080917A00806880937A001092C100E0919F
:100D80009302F091940282E08083E0918F02F091CF
:100D900090021082E0919102F091920280E18083B2
:100DA00010929B02E0919702F091980286E0808376
:100DB000E0919502F0919602808180618083E091BC
:100DC0009502F0919602808188608083E09195027F
:100DD000F0919602808180688083E0919502F09185
:100DE000960280818F7D80838FE080932E038EE03A
:100DF00080932F03E4EEF0E02491E0EDF0E08491A5
:100E0000882399F090E0880F991FFC01ED55FF4F62
:100E1000A591B491FC01E355FF4F859194918FB753
:100E2000F894EC91E22BEC938FBF80912F0390E02C
:100E3000FC01EB52FF4F2491FC01EF53FF4F8491D3
:100E40008823C9F090E0880F991FFC01ED55FF4FF2
:100E500045915491FC01E355FF4FA591B4919FB783
:100E6000F894FA0180812095822380838C91E22F6F
:100E7000E823EC939FBF81E08093300360E0809192
:100E80002E030E94FD000E94000383E491E00E9473
:100E900076038091000190910101A0910201B0912F
:100EA00003018093350390933603A0933703B093E7
:100EB0003803EEE0F2E082E792E011921192119293
:100EC00011928E179F07C9F768EE73E080E090E0FB
:100ED0000E9451010E94840339E1C32ED12CE12CE0
:100EE000F12C83E892E00E942A02892B09F4FDC0CC
:100EF000CE0101960E947D050E94DC0197FD1EC077
:100F00008A309105D9F08F8318860D811E810F5F7D
:100F10001F4FB801CE0101960E940A05882361F394
:100F200029813A818D819E81BE01695F7F4F820F49
:100F3000931F0E94F90F1E830D83DECFBE016F5FEA
:100F40007F4F86E293E00E94CE0489819A810E94BD
:100F50009C0E80902A0390902B03F2E08F16910450
:100F600028F4540122E0822E912C03C092E0A92E95
:100F7000B12CCE0101960E947D0500912A031091AB
:100F80002B03A016B106F0F48016910608F4840134
:100F9000E0912603F0912703E00FF11F908010826B
:100FA00060912603709127036A0D7B1DCE01019687
:100FB0000E945C058091260390912703FC01E00FBD
:100FC000F11F9082BE016F5F7F4F80E293E00E942D
:100FD000CE0489819A810E949C0EA0902A03B09031
:100FE0002B03CE0101960E947D0580912A039091EA
:100FF0002B030097E9F085018017910708F48C0115
:10100000E0912603F0912703E00FF11FB0801082DA
:101010006091260370912703CE0101960E945C0522
:101020008091260390912703FC01E00FF11FB0820D
:1010300089819A81FC0110810E949C0E1D32E9F089
:101040001437E1F11B32E9F58091200390912103DF
:10105000009729F00E945B099B01AC0103C020E0CE
:1010600030E0A901609100017091010180910201BD
:10107000909103010E948E0C18C0809120039091E2
:101080002103009729F00E945B099B01AC0103C07A
:1010900020E030E0A9016091000170910101809190
:1010A0000201909103010E948D0C609300017093E6
:1010B0000101809302019093030107C00E94840301
:1010C00004C081EB91E00E94760380910001909131
:1010D0000101A0910201B091030180933503909327
:1010E0003603A0933703B09338030E9400034B01EB
:1010F0005C0160E070E0CB010E94510180913103FE
:1011000090913203A0913303B0913403A50194016F
:10111000281B390B4A0B5B0BCA01B9010E94D50A87
:1011200020913503309136034091370350913803B5
:101130000E94FA0C905820E030E04AE754E40E9404
:10114000340B20E030E048EC52E40E94340B0E9463
:10115000A20D0E94730D4B015C010E94D30A20E88E
:1011600036E948E15BE40E94CE0A87FF91C0009116
:101170007202109173022091740230917502F8018D
:10118000EE0FFF1FEE0FFF1FE25FFD4F8091760213
:1011900090917702A0917802B091790240805180BD
:1011A0006280738084199509A609B709BC01CD0135
:1011B000680D791D8A1D9B1D6093760270937702DE
:1011C000809378029093790280829182A282B38286
:1011D0000F5F1F4F2F4F3F4F09311105210531057B
:1011E00018F000E010E0980100937202109373026F
:1011F0002093740230937502A70196010E94460C59
:1012000029013A0183EC91E00E946403C301B20119
:101210000E94D30A20E030E048EC52E40E94FA0C2D
:1012200042E00E94FA038CEC91E00E94640360911A
:10123000000170910101809102019091030142E04F
:101240000E94FA0382EE91E00E94640360917602AC
:101250007091770280917802909179024AE00E9421
:10126000B9038EEE91E00E9464034AE0C501B40127
:101270000E94B90389EF91E00E9464034AE0C30130
:10128000B2010E94B90384E291E00E94640304C0A9
:1012900081E092E00E9476030E94D10222CE8091EA
:1012A0002003909121030E949C0E8091260390912F
:1012B00027030C949C0E662777270C945F09A0E007
:1012C000B0E0E5E6F9E00C94060CEC016B01611569
:1012D000710519F0FB01918380837E01FFEFEF1A06
:1012E000FF0A0881802F90E00E94AD0A892B11F03F
:1012F000E701F3CF0D3239F47E0182E0E80EF11CF4
:10130000098111E008C00B3229F47E0192E0E90E58
:10131000F11C098110E0E701219743E050E060E70C
:1013200070E0CE010E94B60A892BC1F4239645E0F5
:1013300050E06BE670E0CE010E94B60A892B09F4FA
:101340002596C114D10419F0F601D183C08311117F
:10135000F6C060E070E080E89FE7FAC043E050E04C
:1013600068E670E0CE010E94B60A892B59F4C114D8
:10137000D10409F4E9C0F2E0EF0EF11CF601F182AC
:10138000E082E2C020E030E0A901C0E0D0E0F70157
:1013900080EDA82EA00E89E08A1530F1912F926081
:1013A000B92E812F887012FF04C0811124C02196AC
:1013B00022C081112197A5E0B0E00E94F50BDC016D
:1013C000CB01880F991FAA1FBB1F9C01AD012A0DDD
:1013D000311D411D511D283989E93807480789E128
:1013E000580748F0166006C09EEFA9120AC013FD08
:1013F00040C01860B12E8FEFE81AF80A00811B2D4B
:10140000C6CF802F8F7D8534A1F580818D3211F478
:10141000106106C08B3221F0319661E070E004C0AB
:101420008181329662E070E080538A3018F0E61BCA
:10143000F70B1FC060E070E060389CE079075CF457
:10144000DB01AA0FBB1FAA0FBB1F6A0F7B1F660F12
:10145000771F680F711D3196DF0111978C918053B2
:101460008A3050F314FF03C0719561957109C60F5E
:10147000D71F11FF08C0C114D10429F0CF01019773
:10148000F60191838083CA01B9010E94D30A212FFA
:101490002370233019F04B015C0106C04B015C0145
:1014A000B7FAB094B7F8B09420E030E0A901C501D4
:1014B000B4010E94CE0A882309F43EC0D7FF06C0BB
:1014C000D195C195D10907E810E002C00FE910E0FD
:1014D0006801F8E1CF1AD10890E2E92EF12CCE157F
:1014E000DF0574F0F8012591359145915491C501BE
:1014F000B4010E94340B4B015C01CE19DF09EFCF20
:1015000004501109F594E7940C151D0541F78A2D37
:10151000880F8B2D881F8F3F49F020E030E0A90114
:10152000C501B4010E94CE0A811106C082E290E09A
:1015300090933A0380933903C501B40109C060E078
:1015400070E080E89FEF04C060E070E080EC9FE70F
:10155000CDB7DEB7ECE00C94220C91110C94A10BEA
:10156000803219F089508550C8F70895FB01DC01DD
:101570004150504088F08D9181341CF08B350CF433
:10158000805E659161341CF06B350CF4605E861BE7
:10159000611171F3990B0895881BFCCF0E94100B09
:1015A00008F481E00895E89409C097FB3EF4909513
:1015B0008095709561957F4F8F4F9F4F9923A9F02C
:1015C000F92F96E9BB279395F695879577956795BB
:1015D000B795F111F8CFFAF4BB0F11F460FF1BC0FF
:1015E0006F5F7F4F8F4F9F4F16C0882311F096E992
:1015F00011C0772321F09EE8872F762F05C0662340
:1016000071F096E8862F70E060E02AF09A95660FF8
:10161000771F881FDAF7880F9695879597F90895B1
:10162000990F0008550FAA0BE0E8FEEF16161706F3
:10163000E807F907C0F012161306E407F50798F05B
:10164000621B730B840B950B39F40A2661F0232B74
:10165000242B252B21F408950A2609F4A140A695F0
:101660008FEF811D811D08950E94470B0C94BB0BC9
:101670000E94AD0B38F00E94B40B20F0952311F0BE
:101680000C94A40B0C94AA0B11240C94EF0B0E9445
:10169000CC0B70F3959FC1F3950F50E0551F629FDF
:1016A000F001729FBB27F00DB11D639FAA27F00DBB
:1016B000B11DAA1F649F6627B00DA11D661F829FE2
:1016C0002227B00DA11D621F739FB00DA11D621FC7
:1016D000839FA00D611D221F749F3327A00D611DE4
:1016E000231F849F600D211D822F762F6A2F1124C6
:1016F0009F5750409AF0F1F088234AF0EE0FFF1FF9
:10170000BB1F661F771F881F91505040A9F79E3F4F
:10171000510580F00C94A40B0C94EF0B5F3FE4F3A5
:10172000983ED4F3869577956795B795F795E795A5
:101730009F5FC1F7FE2B880F911D9695879597F9AE
:10174000089599278827089597F99F6780E870E0A2
:1017500060E008959FEF80EC089500240A94161627
:10176000170618060906089500240A94121613068F
:10177000140605060895092E0394000C11F488231D
:1017800052F0BB0F40F4BF2B11F460FF04C06F5F39
:101790007F4F8F4F9F4F089557FD9058440F551F0F
:1017A00059F05F3F71F04795880F97FB991F61F0E3
:1017B0009F3F79F087950895121613061406551F5A
:1017C000F2CF4695F1DF08C0161617061806991FC6
:1017D000F1CF86957105610508940895E894BB27BB
:1017E00066277727CB0197F908950E94370CA59FAC
:1017F000900DB49F900DA49F800D911D112408950C
:101800002F923F924F925F926F927F928F929F9210
:10181000AF92BF92CF92DF92EF92FF920F931F93FE
:10182000CF93DF93CDB7DEB7CA1BDB0B0FB6F894AF
:10183000DEBF0FBECDBF09942A88398848885F84EF
:101840006E847D848C849B84AA84B984C884DF8060
:10185000EE80FD800C811B81AA81B981CE0FD11D44
:101860000FB6F894DEBF0FBECDBFED010895A29F65
:10187000B001B39FC001A39F700D811D1124911D64
:10188000B29F700D811D1124911D0895A1E21A2EA1
:10189000AA1BBB1BFD010DC0AA1FBB1FEE1FFF1F14
:1018A000A217B307E407F50720F0A21BB30BE40B64
:1018B000F50B661F771F881F991F1A9469F76095AB
:1018C0007095809590959B01AC01BD01CF01089565
:1018D000052E97FB1EF400940E947F0C57FD07D045
:1018E0000E94460C07FC03D04EF40C947F0C5095DC
:1018F0004095309521953F4F4F4F5F4F08959095FC
:101900008095709561957F4F8F4F9F4F0895EE0F93
:10191000FF1F0590F491E02D09945058BB27AA278A
:101920000E94A50C0C94BB0B0E94AD0B38F00E94DA
:10193000B40B20F039F49F3F19F426F40C94AA0B51
:101940000EF4E095E7FB0C94A40BE92F0E94CC0B5E
:1019500058F3BA17620773078407950720F079F4E4
:10196000A6F50C94EE0B0EF4E0950B2EBA2FA02DDD
:101970000B01B90190010C01CA01A0011124FF273C
:10198000591B99F0593F50F4503E68F11A16F04037
:10199000A22F232F342F4427585FF3CF4695379536
:1019A0002795A795F0405395C9F77EF41F16BA0BFB
:1019B000620B730B840BBAF09150A1F0FF0FBB1FA9
:1019C000661F771F881FC2F70EC0BA0F621F731FF2
:1019D000841F48F4879577956795B795F7959E3F4F
:1019E00008F0B0CF9395880F08F09927EE0F9795E0
:1019F000879508950E940E0D0C94BB0B0E94B40BAA
:101A000058F00E94AD0B40F029F45F3F29F00C9490
:101A1000A40B51110C94EF0B0C94AA0B0E94CC0B4D
:101A200068F39923B1F3552391F3951B550BBB270D
:101A3000AA2762177307840738F09F5F5F4F220F52
:101A4000331F441FAA1FA9F335D00E2E3AF0E0E849
:101A500032D091505040E695001CCAF72BD0FE2F93
:101A600029D0660F771F881FBB1F26173707480727
:101A7000AB07B0E809F0BB0B802DBF01FF279358DF
:101A80005F4F3AF09E3F510578F00C94A40B0C94F4
:101A9000EF0B5F3FE4F3983ED4F386957795679517
:101AA000B795F7959F5FC9F7880F911D9695879514
:101AB00097F90895E1E0660F771F881FBB1F621733
:101AC00073078407BA0720F0621B730B840BBA0BF1
:101AD000EE1F88F7E09508950E94730D6894B11188
:101AE0000C94EF0B08950E94D40B88F09F5798F048
:101AF000B92F9927B751B0F0E1F0660F771F881F13
:101B0000991F1AF0BA95C9F714C0B13091F00E942C
:101B1000EE0BB1E008950C94EE0B672F782F882719
:101B2000B85F39F0B93FCCF3869577956795B39553
:101B3000D9F73EF490958095709561957F4F8F4FC2
:101B40009F4F08950E94E20D90F09F3748F4911145
:101B500016F00C94EF0B60E070E080E89FEB0895C6
:101B600026F41B16611D711D811D0C94B90D0C947A
:101B7000D40D882371F4772321F09850872B762F8A
:101B800007C0662311F499270DC09051862B70E091
:101B900060E02AF09A95660F771F881FDAF7880FA2
:101BA0009695879597F908959F3F31F0915020F4CD
:101BB000879577956795B795880F911D9695879529
:101BC00097F908950E94D40BA0F0BEE7B91788F4E6
:101BD000BB279F3860F41616B11D672F782F882712
:101BE000985FF7CF869577956795B11D9395963950
:101BF000C8F308950E94100B08F48FEF08950E9417
:101C0000100B880B990B08950F931F93CF93DF93BD
:101C10008230910510F482E090E0E0913D03F09174
:101C20003E0320E030E0A0E0B0E0309719F14081C1
:101C300051810281138148175907C8F0841795070D
:101C400069F4109731F012960C93129713961C9327
:101C500027C000933D0310933E0322C02115310598
:101C600019F04217530718F49A01BD01EF01DF0183
:101C7000F801DBCF21153105F9F0281B390B243091
:101C8000310580F48A819B816115710521F0FB018A
:101C90009383828304C090933E0380933D03FE01AF
:101CA000329644C0FE01E20FF31F819391932250BC
:101CB0003109398328833AC020913B0330913C039A
:101CC000232B41F4209106013091070130933C030E
:101CD00020933B032091040130910501211531052A
:101CE00041F42DB73EB74091080150910901241BE2
:101CF000350BE0913B03F0913C03E217F307A0F4AE
:101D00002E1B3F0B2817390778F0AC014E5F5F4F51
:101D10002417350748F04E0F5F1F50933C03409344
:101D20003B038193919302C0E0E0F0E0CF01DF91AB
:101D3000CF911F910F910895CF93DF93009709F4EE
:101D400081C0FC01329713821282A0913D03B091B1
:101D50003E03109781F420813181820F931F2091DF
:101D60003B0330913C032817390751F5F0933C03AE
:101D7000E0933B0367C0ED0120E030E0CE17DF07C2
:101D800040F44A815B819E0141155105F1F0EA0161
:101D9000F5CFD383C28340815181840F951FC8172B
:101DA000D90759F488819981840F951F02969183F0
:101DB00080838A819B81938382832115310529F455
:101DC000F0933E03E0933D033DC0E901FB83EA83CA
:101DD00049915991C40FD51FEC17FD0761F480811B
:101DE0009181840F951F0296E901998388838281EE
:101DF00093819B838A83E0E0F0E012968D919C9121
:101E00001397009719F0FD01DC01F7CF8D919C919C
:101E100011979D012E5F3F4F820F931F20913B032F
:101E200030913C032817390769F4309729F4109250
:101E30003E0310923D0302C013821282B0933C0312
:101E4000A0933B03DF91CF910895A0E0B0E0EBE2D7
:101E5000FFE00C94040CEC01009721F4CB010E94EC
:101E6000040EB4C0FC01E60FF71F9C01225031099B
:101E7000E217F30708F4A8C0D9010D911C9111973E
:101E800006171707B0F00530110508F49BC0C8010C
:101E900004978617970708F495C002501109061B8E
:101EA000170B019311936D937C93CF010E949C0EAD
:101EB00089C05B01A01AB10A4C01800E911EA0914D
:101EC0003D03B0913E03612C712CE12CF12C109755
:101ED00009F446C08D919C911197A815B905B1F5EB
:101EE0006C0142E0C40ED11CCA14DB0478F14C0131
:101EF0008A189B08640142E0C40ED11C1296BC9063
:101F000012971396AC91B5E0CB16D10440F0B28293
:101F1000A38391828082D9016D937C9309C00E5F67
:101F20001F4F800F911FF90191838083EB2DFA2FB2
:101F3000E114F10431F0D7011396FC93EE9312975C
:101F400041C0F0933E03E0933D033CC06816790620
:101F500008F43C017D0112960D90BC91A02DB7CFE5
:101F600080913B0390913C0388169906E1F4661634
:101F70007706C8F48091040190910501009741F41F
:101F80008DB79EB74091080150910901841B950BB4
:101F9000E817F907C8F4F0933C03E0933B03F90119
:101FA000718360830FC0CB010E94040E7C010097F7
:101FB00059F0A801BE010E94F00FCE010E949C0EB4
:101FC000C70104C0CE0102C080E090E0CDB7DEB70B
:101FD000EEE00C94200C81E090E0F8940C9400105A
:101FE000FB01DC0102C001900D9241505040D8F736
:101FF0000895FB01DC0101900D920020E1F70895A6
:1020000010E0C0E8D0E004C0FE010E94870C2196D9
:0A201000C138D107C9F7F894FFCFDB
:10201A00C0C4DE4800003F038000000000006202E6
:10202A008C01B901AF022A02C8011C02000000009B
:10203A00DB02CC040D0A0042616C616EC3A7612009
:10204A00746172616461006E616E00696E66006F30
:10205A007666000A0A506172767573204D65746956
:10206A007269200A2072656D6F7661206F20717522
:10207A00616C71756572206D617373612064612092
:10208A0062616C616E63610A20656E7669652074AF
:10209A0020706172612074617261722065202B2F39
:1020AA002D203C76616C6F723E20706172612061F6
:1020BA006A757374617220636F6E7374616E74658E
:1020CA0000436F6D616E646F20696E76C3A16C699F
:1020DA00646F007765696768743A20002063616CF1
:1020EA006962726174696F6E5F666163746F723A76
:1020FA00200020646174615F73756D3A200020725C
:10210A00656164696E673A200020617667693A20E2
:0E211A000073656E736F72206572726F7200D3
:00000001FF
